:10000000830100308A007928F70003088301C300C8
:100010000408C4007008C700830106178C1D492816
:100020008C118316941A16288312A2018316141DAC
:10003000252883122108383E84008313000893008A
:10004000A10A0730A1051416482883121308B70027
:10005000A20A2208023A031D312837080739A100F5
:1000600048280330220203183E284828B9172108DF
:10007000383E84008313370880004728210803197D
:100080003628023A03193728013A03193728A10AFA
:1000900014138B190B1C622806082306F0000C10A1
:1000A000861F56288E018F0111305E2810100F0810
:1000B000C1000E08C0008E018F013130900006088B
:1000C000A3000B100C1C6E2883160C1C6E288312C8
:1000D0001010DC30C0000530C1000C108312061374
:1000E0004708F0004408840043088300F70E770EA9
:1000F00009002130840038308F20203084002130E6
:100100008F2083010730C600F530C50038308400E9
:10011000433093208301572B04068001840A040690
:10012000031D8C280034F0009F208000840A0408FE
:10013000700603190034942883120313C500C61BEC
:10014000AA28461BB22846088A004508C50A031992
:10015000C60A82008313461883174508C50A84001F
:04016000000808008B
:1005EC008301B6000310360C95003608F000053078
:1005FC00F1000310F00DF10BFF2A70083039B60032
:10060C00CF309705360897040800F401F501031064
:10061C00F30CF20C031C192B7008F4077108031867
:10062C00710AF5070310F00DF10D7208730403192C
:10063C0000340D2B83018701EF3083168500FD30CC
:10064C00860018308700473081007C30831292007E
:10065C008030831692000C3083129700950183161C
:10066C009F010B178B17831208008301AC01AD019E
:10067C00AC0A0319AD0A27302D02103003192C02D5
:10068C00031C3E2B0516AC01AD01AC0A0319AD0AD7
:10069C009C302D02403003192C02031C4B2B0512ED
:1006AC003B2B2023802BB030831693000F24B230C9
:1006BC00831693000F24B430831693000F24B630A6
:1006CC00831693000F24B830831693000F24BA308E
:1006DC00831693000F24BC30831693000F24BE3076
:1006EC00831693000F24B125D1249A2683160C145B
:1006FC009A26AD2B06083C39F200F301AA2B72089E
:10070C000319592B043A03195D2B0C3A0319612B6D
:10071C00043A0319652B1C3A0319692B043A031983
:10072C006D2B0C3A0319712B043A0319752B3C3AB7
:10073C000319792B043A03197A2B0C3A03197B2BE6
:10074C00043A03197C2BAD2B73080319852B3B231F
:10075C00792883012B0881000B11BB302502031C67
:10076C00BD2BC2080319BB2BC2033915C22B27089A
:10077C004202031CC20A3911270842020318C82B73
:10078C004208C92B2708B500390806390319D02BA4
:10079C000512D12B0516201CD52B0130D62B003081
:1007AC00F000861CDB2B0130DC2B0030F00603192B
:1007BC00EA2BA408031DE82B201CE62B86140D2C19
:1007CC0086100D2CA4030B2C24083506031DF22BCC
:1007DC003910AA01AB010D2C24083502831603181D
:1007EC00032C8C19FD2B8312AA01FC30AB00831255
:0407FC00A403240826
:10080000F62239100D2C8C19092C8312AA01FC3008
:10081000AB008312A40A2408F62283010800830196
:10082000AD01803083169400363083129400831615
:10083000910183128C1183168C15993083129F00BD
:100840001F150D30BF00071C272CE030282C03306B
:100850008700B91B532C622C20102F2C2014F3304E
:100860003A020318352C3A08362CF330AE00A700B4
:100870007D30F200F3013B08F000F1010B23E8307A
:10088000F4070318F50A0330F507F409F509F40A2B
:100890000319F50A7408AA007508AB0081000B1152
:1008A0003914B913622C3808013A03192C2C033A75
:1008B00003192E2C2010AE01A701A4012408F62252
:1008C0007E30B9051F1DC92CCD2C1E08A500BD000A
:1008D000A1309F00071C6E2CE0306F2C0330870086
:1008E000AD01AD0AAF01B001071C782CE030792CC6
:1008F00003308700AF0A0319B00A3008803AF000CD
:1009000080307002193003192F02031C742CC72C7D
:100910001E08A600BC0099309F00071C912CE030F7
:10092000922C03308700AD01071C982CE030992CE5
:1009300003308700C83026020318C42C2C08260672
:100940000319C72C2608AC00B53026020318AA2CC0
:10095000B530A6002E08F200F3012608F000F101E0
:100960004C30F0070318F10AFF30F1070B2374082D
:10097000F0007508F1001430F2000030F301A627F2
:100980007408A700B914C72C2E08A700B9101F15AA
:10099000CD2C2D080319652C882C0B1D232CAF237F
:1009A000232C8301AE01AF01831681178312AA01A4
:1009B000FC30AB0081000B1199309F001F15071C04
:1009C000E32CE030E42C033087001F1DA62DAD2D55
:1009D0001E08A50091309F00071CF02CE030F12C80
:1009E00003308700AE01AE0AB001B101071CFA2C3A
:1009F000E030FB2C03308700B00A0319B10A31083C
:100A0000803AF00080307002193003193002031C64
:100A1000F62CA42DF3301E020318102D1E08112DE4
:100A2000F330AF00201487192010831203132F080E
:100A30002C060319202D2F08AC00AA01FC30AB00B6
:100A4000201C242D0130252D0030F000861C2A2D7D
:100A500001302B2D0030F0060319312DAA01FC3096
:100A6000AB00A1309F00071C372DE030382D03303C
:100A700087000230AE00B001B101071C412DE0300B
:100A8000422D03308700B00A0319B10A3108803AB9
:100A9000F00080307002193003193002031C3D2D24
:100AA000A42D1E08A60099309F00071C592DE03088
:100AB0005A2D03308700AE01071C602DE030612DF8
:100AC00003308700C830260203188C2D2D08260617
:100AD00003198F2D2608AD00B53026020318722D9C
:100AE000B530A6002F08F200F3012608F000F1014E
:100AF0004C30F0070318F10AFF30F1070B2374089C
:100B0000F0007508F1001430F2000030F301A62760
:100B10007408A700B9148F2D2F08A700B910B001D1
:100B2000B101071C952DE030962D03308700B00AE7
:100B30000319B10A3108803AF00080307002193090
:100B400003193002031C912D1F15AD2D2E0803191A
:100B5000E82C013A03190A2D512D0B1DDF2CAF2370
:100B6000DF2C8301AE01AF01831681178312AA0126
:100B7000FC30AB0081000B1199309F001F15071C42
:100B8000C32DE030C42D033087001F1D8F2E962EFD
:100B90001E08A50091309F00071CD02DE030D12DFC
:100BA00003308700AE01AE0AB001B101071CDA2D97
:100BB000E030DB2D03308700B00A0319B10A310899
:100BC000803AF00080307002193003193002031CA3
:100BD000D62D8D2E84301E02031CF42D1E081E07F8
:100BE000FA3EAF002010002E7D301E020318FF2DAC
:100BF0001E087D3CF0007007AF002014002EAF01EE
:100C00002F082C060319092E2F08AC00AA01FC306E
:100C1000AB00201C0D2E01300E2E0030F000861C83
:100C2000132E0130142E0030F00603191A2EAA01DB
:100C3000FC30AB00A1309F00071C202EE030212E9D
:100C4000033087000230AE00B001B101071C2A2E2C
:100C5000E0302B2E03308700B00A0319B10A3108A7
:100C6000803AF00080307002193003193002031C02
:100C7000262E8D2E1E08A60099309F00071C422E9E
:100C8000E030432E03308700AE01071C492EE030D0
:100C90004A2E03308700C83026020318752E2D080F
:100CA00026060319782E2608AD00B5302602031853
:100CB0005B2EB530A6002F08F200F3012608F000E5
:100CC000F1014C30F0070318F10AFF30F1070B2354
:100CD0007408F0007508F1001430F2000030F301E0
:100CE000A6277408A700B914782E2F08A700B910FA
:100CF000B001B101071C7E2EE0307F2E033087004B
:100D0000B00A0319B10A3108803AF000803070024D
:100D1000193003193002031C7A2E1F15962E2E0847
:100D20000319C82D013A0319EA2D3A2E0B1DBF2DC8
:100D3000AF23BF2D8301AE01831606138312AA01D0
:100D4000FC30AB0081000B110608AD000B108B15B9
:100D50008C10AD0199309F001F15071CB12EE0309B
:100D6000B22E033087001F1D2D2F312F1E08A50026
:100D7000A1309F00071CBE2EE030BF2E033087003D
:100D8000AD01AD0AB101B201071CC82EE030C92E79
:100D900003308700B10A0319B20A3208803AF00022
:100DA00080307002193003193102031CC42E2B2F1E
:100DB0001E08A60099309F00071CE02EE030E12EAF
:100DC00003308700AD01071CE72EE030E82E03302A
:100DD0008700C83026020318132F2C082606031993
:100DE000162F2608AC00B53026020318F92EB530B0
:100DF000A6002E08F200F3012608F000F1014C30A5
:100E0000F0070318F10AFF30F1070B237408F00014
:100E10007508F1001430F2000030F301A6277408C1
:100E2000A700B914162F2E08A700B910B101B201FE
:100E3000071C1C2FE0301D2F03308700B10A031957
:100E4000B20A3208803AF00080307002193003197B
:100E50003102031C182F1F15312F2D080319B62E30
:100E6000D82E4008B3004108B4004106031D3A2FB4
:100E700040083306031D312F34083006031D422F6E
:100E800033082F060319A22FAA01FC30AB00330848
:100E9000AF003408B00005303402E03003193302EB
:100EA000031C6C2F0830340234300319330203184A
:100EB0006C2F2014073034026D3003193302031CE9
:100EC000652F6C30B3000730B4002130B30703182E
:100ED000B40AFA30B407962F05303402D93003191A
:100EE00033020318A12F0330340285300319330273
:100EF000031CA12F2010043034024C30031933029C
:100F00000318862F4C30B3000430B400F001F10117
:100F10003308F002031CF1033408F102D9307007E2
:100F2000B3000530031806307107B4009C30F2009E
:100F3000F3013408F1003308F0000B237508AE000C
:100F4000A22FAE010B1DAD2EAF23AD2EF601F11F6A
:100F5000B02FF009F00A0319F103F1097617F6171B
:100F600073088039F606F31FBC2FF209F20A031941
:100F7000F303F309BC2FF601F401F50172087304C1
:100F8000031DC52FF001F10100341F30F6040310DA
:100F9000F60AF20DF30D031CC82FF30CF20C7308C4
:100FA0007102031DD52F72087002031CDD2F720819
:100FB000F0027308031C730AF102F40DF50DF60B31
:100FC000F61ACD2FF61FE92FF409F40A0319F503D9
:100FD000F5097408F2007508F300761F0034F00973
:100FE000F00A0319F103F10900340034003400342D
:100FF00000340034003400340034DC340534FA3476
:02400E00723FFF
:00000001FF
